{
  "transactions": [
    {
      "hash": "0xf89cc9bbba4ebc0e92ad13e9369ba6cba326aaf565d22b7a0921efb0a52b8193",
      "transactionType": "CALL",
      "contractName": null,
      "contractAddress": "0x6fed5f6895b2d95da607564b0437cedebf4ca535",
      "function": "buyFiatWithETH(string)",
      "arguments": [
        "fUSD"
      ],
      "transaction": {
        "from": "0x484826732d75d6a8018bfad3468bd84f64614268",
        "to": "0x6fed5f6895b2d95da607564b0437cedebf4ca535",
        "gas": "0x200cf",
        "value": "0x38d7ea4c68000",
        "input": "0xda13d4e6000000000000000000000000000000000000000000000000000000000000002000000000000000000000000000000000000000000000000000000000000000046655534400000000000000000000000000000000000000000000000000000000",
        "nonce": "0x42",
        "chainId": "0x14a34"
      },
      "additionalContracts": [],
      "isFixedGasLimit": false
    },
    {
      "hash": "0x13997057a7517fdb3b46f5620fb4160eb84f4c7da629de9323c6e6acfa5078e6",
      "transactionType": "CALL",
      "contractName": null,
      "contractAddress": "0x6fed5f6895b2d95da607564b0437cedebf4ca535",
      "function": "buyFiatWithETH(string)",
      "arguments": [
        "fEUR"
      ],
      "transaction": {
        "from": "0x484826732d75d6a8018bfad3468bd84f64614268",
        "to": "0x6fed5f6895b2d95da607564b0437cedebf4ca535",
        "gas": "0x22ac2",
        "value": "0x38d7ea4c68000",
        "input": "0xda13d4e6000000000000000000000000000000000000000000000000000000000000002000000000000000000000000000000000000000000000000000000000000000046645555200000000000000000000000000000000000000000000000000000000",
        "nonce": "0x43",
        "chainId": "0x14a34"
      },
      "additionalContracts": [],
      "isFixedGasLimit": false
    },
    {
      "hash": "0xe3353b87d0bf1334f0255c954eb4ac0f0f2df910af9a42ccb1f837b7d8580e56",
      "transactionType": "CALL",
      "contractName": null,
      "contractAddress": "0x6fed5f6895b2d95da607564b0437cedebf4ca535",
      "function": "buyFiatWithETH(string)",
      "arguments": [
        "fGBP"
      ],
      "transaction": {
        "from": "0x484826732d75d6a8018bfad3468bd84f64614268",
        "to": "0x6fed5f6895b2d95da607564b0437cedebf4ca535",
        "gas": "0x22ac2",
        "value": "0x38d7ea4c68000",
        "input": "0xda13d4e6000000000000000000000000000000000000000000000000000000000000002000000000000000000000000000000000000000000000000000000000000000046647425000000000000000000000000000000000000000000000000000000000",
        "nonce": "0x44",
        "chainId": "0x14a34"
      },
      "additionalContracts": [],
      "isFixedGasLimit": false
    },
    {
      "hash": "0x8fb3eab052d3686a5214dcaa180d81bf9cb8a455429e0699d3bbc49bab6a6179",
      "transactionType": "CALL",
      "contractName": null,
      "contractAddress": "0x6fed5f6895b2d95da607564b0437cedebf4ca535",
      "function": "buyFiatWithETH(string)",
      "arguments": [
        "fYEN"
      ],
      "transaction": {
        "from": "0x484826732d75d6a8018bfad3468bd84f64614268",
        "to": "0x6fed5f6895b2d95da607564b0437cedebf4ca535",
        "gas": "0x22ac2",
        "value": "0x38d7ea4c68000",
        "input": "0xda13d4e6000000000000000000000000000000000000000000000000000000000000002000000000000000000000000000000000000000000000000000000000000000046659454e00000000000000000000000000000000000000000000000000000000",
        "nonce": "0x45",
        "chainId": "0x14a34"
      },
      "additionalContracts": [],
      "isFixedGasLimit": false
    }
  ],
  "receipts": [
    {
      "status": "0x1",
      "cumulativeGasUsed": "0x22760",
      "logs": [
        {
          "address": "0x69313d945525238975dcffde5936060fbab6a635",
          "topics": [
            "0xddf252ad1be2c89b69c2b068fc378daa952ba7f163c4a11628f55a4df523b3ef",
            "0x00000000000000000000000069313d945525238975dcffde5936060fbab6a635",
            "0x0000000000000000000000006fed5f6895b2d95da607564b0437cedebf4ca535"
          ],
          "data": "0x0000000000000000000000000000000000000000000000003eeb032cd3b403f5",
          "blockHash": "0x60c7bd1251320c02d08d16f0c84af7b43fa03ea45c432f22a48d46b35f739bcd",
          "blockNumber": "0x1e78785",
          "blockTimestamp": "0x68e26dea",
          "transactionHash": "0xf89cc9bbba4ebc0e92ad13e9369ba6cba326aaf565d22b7a0921efb0a52b8193",
          "transactionIndex": "0x1",
          "logIndex": "0x0",
          "removed": false
        },
        {
          "address": "0xa5a5bbbb2455194d0b9bab5545fe4d6175d63c81",
          "topics": [
            "0xdf81e865fadaacb470b5341ff22dfda1cda4fbbe2ba99c8e51cc37d8663a4e90",
            "0x0000000000000000000000006fed5f6895b2d95da607564b0437cedebf4ca535"
          ],
          "data": "0x000000000000000000000000000000000000000000000000000000000000006000000000000000000000000000000000000000000000000000038d7ea4c680000000000000000000000000000000000000000000000000003eeb032cd3b403f500000000000000000000000000000000000000000000000000000000000000046655534400000000000000000000000000000000000000000000000000000000",
          "blockHash": "0x60c7bd1251320c02d08d16f0c84af7b43fa03ea45c432f22a48d46b35f739bcd",
          "blockNumber": "0x1e78785",
          "blockTimestamp": "0x68e26dea",
          "transactionHash": "0xf89cc9bbba4ebc0e92ad13e9369ba6cba326aaf565d22b7a0921efb0a52b8193",
          "transactionIndex": "0x1",
          "logIndex": "0x1",
          "removed": false
        }
      ],
      "logsBloom": "0x00000000000000000000000000000000000200000408000000000000000000000000000000000000000000000000000000002000000000000000000000100200000000000000000000000008000000010000000000000000000000000000000000000000000020000000000000000000000000000000000000000010000000000000020000010000000000000000000000000000000001000000000000000000000000000000000000000000000000000000000000000000000000000000000000000002000000000000000000000000000000000000000000000000000000000000000000000000000000000020000000000000000002000040020000000000",
      "type": "0x2",
      "transactionHash": "0xf89cc9bbba4ebc0e92ad13e9369ba6cba326aaf565d22b7a0921efb0a52b8193",
      "transactionIndex": "0x1",
      "blockHash": "0x60c7bd1251320c02d08d16f0c84af7b43fa03ea45c432f22a48d46b35f739bcd",
      "blockNumber": "0x1e78785",
      "gasUsed": "0x17344",
      "effectiveGasPrice": "0x8c09240",
      "from": "0x484826732d75d6a8018bfad3468bd84f64614268",
      "to": "0x6fed5f6895b2d95da607564b0437cedebf4ca535",
      "contractAddress": null,
      "l1BaseFeeScalar": "0x44d",
      "l1BlobBaseFee": "0x1",
      "l1BlobBaseFeeScalar": "0xa118b",
      "l1Fee": "0x66",
      "l1GasPrice": "0x15",
      "l1GasUsed": "0x640"
    },
    {
      "status": "0x1",
      "cumulativeGasUsed": "0x3a2b3",
      "logs": [
        {
          "address": "0x07b9e536a980a6191a56f5a039f98cff1cc75f51",
          "topics": [
            "0xddf252ad1be2c89b69c2b068fc378daa952ba7f163c4a11628f55a4df523b3ef",
            "0x00000000000000000000000007b9e536a980a6191a56f5a039f98cff1cc75f51",
            "0x0000000000000000000000006fed5f6895b2d95da607564b0437cedebf4ca535"
          ],
          "data": "0x0000000000000000000000000000000000000000000000003609cef3f5fbc12d",
          "blockHash": "0x60c7bd1251320c02d08d16f0c84af7b43fa03ea45c432f22a48d46b35f739bcd",
          "blockNumber": "0x1e78785",
          "blockTimestamp": "0x68e26dea",
          "transactionHash": "0x13997057a7517fdb3b46f5620fb4160eb84f4c7da629de9323c6e6acfa5078e6",
          "transactionIndex": "0x2",
          "logIndex": "0x2",
          "removed": false
        },
        {
          "address": "0xa5a5bbbb2455194d0b9bab5545fe4d6175d63c81",
          "topics": [
            "0xdf81e865fadaacb470b5341ff22dfda1cda4fbbe2ba99c8e51cc37d8663a4e90",
            "0x0000000000000000000000006fed5f6895b2d95da607564b0437cedebf4ca535"
          ],
          "data": "0x000000000000000000000000000000000000000000000000000000000000006000000000000000000000000000000000000000000000000000038d7ea4c680000000000000000000000000000000000000000000000000003609cef3f5fbc12d00000000000000000000000000000000000000000000000000000000000000046645555200000000000000000000000000000000000000000000000000000000",
          "blockHash": "0x60c7bd1251320c02d08d16f0c84af7b43fa03ea45c432f22a48d46b35f739bcd",
          "blockNumber": "0x1e78785",
          "blockTimestamp": "0x68e26dea",
          "transactionHash": "0x13997057a7517fdb3b46f5620fb4160eb84f4c7da629de9323c6e6acfa5078e6",
          "transactionIndex": "0x2",
          "logIndex": "0x3",
          "removed": false
        }
      ],
      "logsBloom": "0x00000000000000000000000000000000000200000008000000000000000000000000000000000000000000000000000000002000000000000000000000100000000000000000000000000208000000000000000000000000000000000000000000000000000020000000000000000000000000000001000000000010000000000000020000010000000000000000000000000000000001000000000000000000000001000000000000000000000000000000000000000000000000000000000000000002000000000000000000000000000000000000000000000000001200000000000000000000000000000000000000400000000002000000000000000000",
      "type": "0x2",
      "transactionHash": "0x13997057a7517fdb3b46f5620fb4160eb84f4c7da629de9323c6e6acfa5078e6",
      "transactionIndex": "0x2",
      "blockHash": "0x60c7bd1251320c02d08d16f0c84af7b43fa03ea45c432f22a48d46b35f739bcd",
      "blockNumber": "0x1e78785",
      "gasUsed": "0x17b53",
      "effectiveGasPrice": "0x8c09240",
      "from": "0x484826732d75d6a8018bfad3468bd84f64614268",
      "to": "0x6fed5f6895b2d95da607564b0437cedebf4ca535",
      "contractAddress": null,
      "l1BaseFeeScalar": "0x44d",
      "l1BlobBaseFee": "0x1",
      "l1BlobBaseFeeScalar": "0xa118b",
      "l1Fee": "0x66",
      "l1GasPrice": "0x15",
      "l1GasUsed": "0x640"
    },
    {
      "status": "0x1",
      "cumulativeGasUsed": "0x51e06",
      "logs": [
        {
          "address": "0xda51dc0c61fe4957e2dab13c5ffb8f28705ee937",
          "topics": [
            "0xddf252ad1be2c89b69c2b068fc378daa952ba7f163c4a11628f55a4df523b3ef",
            "0x000000000000000000000000da51dc0c61fe4957e2dab13c5ffb8f28705ee937",
            "0x0000000000000000000000006fed5f6895b2d95da607564b0437cedebf4ca535"
          ],
          "data": "0x0000000000000000000000000000000000000000000000002ee2de86cb825595",
          "blockHash": "0x60c7bd1251320c02d08d16f0c84af7b43fa03ea45c432f22a48d46b35f739bcd",
          "blockNumber": "0x1e78785",
          "blockTimestamp": "0x68e26dea",
          "transactionHash": "0xe3353b87d0bf1334f0255c954eb4ac0f0f2df910af9a42ccb1f837b7d8580e56",
          "transactionIndex": "0x3",
          "logIndex": "0x4",
          "removed": false
        },
        {
          "address": "0xa5a5bbbb2455194d0b9bab5545fe4d6175d63c81",
          "topics": [
            "0xdf81e865fadaacb470b5341ff22dfda1cda4fbbe2ba99c8e51cc37d8663a4e90",
            "0x0000000000000000000000006fed5f6895b2d95da607564b0437cedebf4ca535"
          ],
          "data": "0x000000000000000000000000000000000000000000000000000000000000006000000000000000000000000000000000000000000000000000038d7ea4c680000000000000000000000000000000000000000000000000002ee2de86cb82559500000000000000000000000000000000000000000000000000000000000000046647425000000000000000000000000000000000000000000000000000000000",
          "blockHash": "0x60c7bd1251320c02d08d16f0c84af7b43fa03ea45c432f22a48d46b35f739bcd",
          "blockNumber": "0x1e78785",
          "blockTimestamp": "0x68e26dea",
          "transactionHash": "0xe3353b87d0bf1334f0255c954eb4ac0f0f2df910af9a42ccb1f837b7d8580e56",
          "transactionIndex": "0x3",
          "logIndex": "0x5",
          "removed": false
        }
      ],
      "logsBloom": "0x00000000000000000000000000000000000200000008000000000000000000000000000000000000008000000100000000002000000000000000000000100000000000000000800000000008000000000000000000000000000040000000000000000000000020000000000000000000000000000000000000000010000000000000020000010000000000000000000000000000000001000000000000000000000000000000004000000000000000000000000000000000000000000000000000000002000000000000000000000000000000010000000000000000000000000000000000000000000000000000000000000000000002000000000000000000",
      "type": "0x2",
      "transactionHash": "0xe3353b87d0bf1334f0255c954eb4ac0f0f2df910af9a42ccb1f837b7d8580e56",
      "transactionIndex": "0x3",
      "blockHash": "0x60c7bd1251320c02d08d16f0c84af7b43fa03ea45c432f22a48d46b35f739bcd",
      "blockNumber": "0x1e78785",
      "gasUsed": "0x17b53",
      "effectiveGasPrice": "0x8c09240",
      "from": "0x484826732d75d6a8018bfad3468bd84f64614268",
      "to": "0x6fed5f6895b2d95da607564b0437cedebf4ca535",
      "contractAddress": null,
      "l1BaseFeeScalar": "0x44d",
      "l1BlobBaseFee": "0x1",
      "l1BlobBaseFeeScalar": "0xa118b",
      "l1Fee": "0x66",
      "l1GasPrice": "0x15",
      "l1GasUsed": "0x640"
    },
    {
      "status": "0x1",
      "cumulativeGasUsed": "0x69959",
      "logs": [
        {
          "address": "0x7f82c5c6208be55c2f72fcd855f02666b5ec2854",
          "topics": [
            "0xddf252ad1be2c89b69c2b068fc378daa952ba7f163c4a11628f55a4df523b3ef",
            "0x0000000000000000000000007f82c5c6208be55c2f72fcd855f02666b5ec2854",
            "0x0000000000000000000000006fed5f6895b2d95da607564b0437cedebf4ca535"
          ],
          "data": "0x000000000000000000000000000000000000000000000000006eeaf5a83b9c28",
          "blockHash": "0x60c7bd1251320c02d08d16f0c84af7b43fa03ea45c432f22a48d46b35f739bcd",
          "blockNumber": "0x1e78785",
          "blockTimestamp": "0x68e26dea",
          "transactionHash": "0x8fb3eab052d3686a5214dcaa180d81bf9cb8a455429e0699d3bbc49bab6a6179",
          "transactionIndex": "0x4",
          "logIndex": "0x6",
          "removed": false
        },
        {
          "address": "0xa5a5bbbb2455194d0b9bab5545fe4d6175d63c81",
          "topics": [
            "0xdf81e865fadaacb470b5341ff22dfda1cda4fbbe2ba99c8e51cc37d8663a4e90",
            "0x0000000000000000000000006fed5f6895b2d95da607564b0437cedebf4ca535"
          ],
          "data": "0x000000000000000000000000000000000000000000000000000000000000006000000000000000000000000000000000000000000000000000038d7ea4c68000000000000000000000000000000000000000000000000000006eeaf5a83b9c2800000000000000000000000000000000000000000000000000000000000000046659454e00000000000000000000000000000000000000000000000000000000",
          "blockHash": "0x60c7bd1251320c02d08d16f0c84af7b43fa03ea45c432f22a48d46b35f739bcd",
          "blockNumber": "0x1e78785",
          "blockTimestamp": "0x68e26dea",
          "transactionHash": "0x8fb3eab052d3686a5214dcaa180d81bf9cb8a455429e0699d3bbc49bab6a6179",
          "transactionIndex": "0x4",
          "logIndex": "0x7",
          "removed": false
        }
      ],
      "logsBloom": "0x00000000000000000000000000000002000300000008000001000000000000000000000000000000000000000000000000002000000000000000000000100000000000000100000000000008000000000000000000000000000000000000000000000000010020000000000000000000000000000000000000000010000000000000020000010000000000000000000000000000000001000000000000000000000000000000000000000000000000000000000000000000000000000000000000008002000000000000000000000000000000000000000000000000000000000000000000000000000000000000000000000000000002000000000000000000",
      "type": "0x2",
      "transactionHash": "0x8fb3eab052d3686a5214dcaa180d81bf9cb8a455429e0699d3bbc49bab6a6179",
      "transactionIndex": "0x4",
      "blockHash": "0x60c7bd1251320c02d08d16f0c84af7b43fa03ea45c432f22a48d46b35f739bcd",
      "blockNumber": "0x1e78785",
      "gasUsed": "0x17b53",
      "effectiveGasPrice": "0x8c09240",
      "from": "0x484826732d75d6a8018bfad3468bd84f64614268",
      "to": "0x6fed5f6895b2d95da607564b0437cedebf4ca535",
      "contractAddress": null,
      "l1BaseFeeScalar": "0x44d",
      "l1BlobBaseFee": "0x1",
      "l1BlobBaseFeeScalar": "0xa118b",
      "l1Fee": "0x66",
      "l1GasPrice": "0x15",
      "l1GasUsed": "0x640"
    }
  ],
  "libraries": [],
  "pending": [],
  "returns": {},
  "timestamp": 1759669737232,
  "chain": 84532,
  "commit": "bad11a2"
}